:100000000C945D000C9485000C9485000C94850084
:100010000C9485000C9485000C9485000C94CB0204
:100020000C9485000C9485000C9485000C9485003C
:100030000C9485000C9485000C9485000C9485002C
:100040000C9481020C9485000C944F020C942902AC
:100050000C9485000C9485000C9485000C9485000C
:100060000C9485000C94850000000008000201003B
:100070000003040700000000000000000000000072
:10008000250028002B0000000000240027002A0083
:10009000040404040404040402020202020203032E
:1000A0000303030301020408102040800102040836
:1000B0001020010204081020CB0311241FBECFEF33
:1000C000D8E0DEBFCDBF11E0A0E0B1E0E0E0F8E0B5
:1000D00002C005900D92A432B107D9F721E0A4E245
:1000E000B1E001C01D92A13DB207E1F710E0CDE5FE
:1000F000D0E004C02197FE010E94F803CC35D1075F
:10010000C9F70E94F5020C94FE030C940000CF93F3
:10011000DF9390E0FC01EC55FF4F249180579F4FF7
:10012000FC0184918823C1F090E0880F991FFC01A5
:10013000EA57FF4FC591D491FC01E458FF4FA591B8
:10014000B4919FB7F8948881E22FE0958E2388833D
:100150008C91E823EC939FBFDF91CF91089590E0BD
:10016000FC01E859FF4F2491FC01EC55FF4F3491FD
:10017000FC01E057FF4FE491EE23B9F0222339F060
:100180002330F1F098F4213009F1223019F1F0E038
:10019000EE0FFF1FE458FF4FA591B4918FB7F8946D
:1001A000EC9130953E233C938FBF08952730A9F002
:1001B0002830C9F0243059F7809180008F7D03C02A
:1001C000809180008F7780938000E1CF84B58F7716
:1001D00084BDDDCF84B58F7DFBCF8091B0008F775C
:1001E0008093B000D4CF8091B0008F7DF9CFAF92D3
:1001F000BF92CF92DF92EF92FF920F931F93CF9314
:10020000DF936C017B018B01040F151FEB015E0175
:10021000AE18BF08C017D10759F06991D601ED910A
:10022000FC910190F081E02DC6010995892B79F7A9
:10023000C501DF91CF911F910F91FF90EF90DF905B
:10024000CF90BF90AF900895FC01538D448D252F22
:1002500030E0842F90E0821B930B541710F0CF9660
:10026000089501970895FC01918D828D981761F092
:10027000A28DAE0FBF2FB11D5D968C91928D9F5FA9
:100280009F73928F90E008958FEF9FEF0895FC0188
:10029000918D828D981731F0828DE80FF11D858D3B
:1002A00090E008958FEF9FEF0895FC01918D228DCE
:1002B000892F90E0805C9F4F821B91098F73992753
:1002C000089584E391E00E94550121E0892B09F40F
:1002D00020E0822F089580E090E0892B29F00E9491
:1002E000610181110C9400000895FC01A48DA80FF8
:1002F000B92FB11DA35ABF4F2C91848D90E0019668
:100300008F739927848FA689B7892C93A089B18987
:100310008C91837080648C93938D848D981306C028
:100320000288F389E02D80818F7D80830895EF928C
:10033000FF920F931F93CF93DF93EC0181E0888F9F
:100340009B8D8C8D98131AC0E889F989808185FF6F
:1003500015C09FB7F894EE89FF896083E889F98911
:1003600080818370806480839FBF81E090E0DF9113
:10037000CF911F910F91FF90EF900895F62E0B8D66
:1003800010E00F5F1F4F0F731127E02E8C8D8E1121
:100390000CC00FB607FCFACFE889F989808185FF88
:1003A000F5CFCE010E947501F1CFEB8DEC0FFD2F43
:1003B000F11DE35AFF4FF0829FB7F8940B8FEA8943
:1003C000FB8980818062CFCFCF93DF93EC01888D52
:1003D0008823B9F0AA89BB89E889F9898C9185FDC0
:1003E00003C0808186FD0DC00FB607FCF7CF8C914E
:1003F00085FFF2CF808185FFEDCFCE010E94750190
:10040000E9CFDF91CF9108953FB7F8948091300103
:1004100090913101A0913201B091330126B5A89B92
:1004200005C02F3F19F00196A11DB11D3FBFBA2F86
:10043000A92F982F8827BC01CD01620F711D811D46
:10044000911D42E0660F771F881F991F4A95D1F7CB
:1004500008951F920F920FB60F9211242F933F937E
:100460004F935F936F937F938F939F93AF93BF93BC
:10047000EF93FF9384E391E00E947501FF91EF9168
:10048000BF91AF919F918F917F916F915F914F91AC
:100490003F912F910F900FBE0F901F9018951F92B4
:1004A0000F920FB60F9211242F938F939F93EF9378
:1004B000FF93E0914401F09145018081E0914A0170
:1004C000F0914B0182FD1BC0908180914D018F5FA7
:1004D0008F7320914E01821741F0E0914D01F0E0C1
:1004E000EC5CFE4F958F80934D01FF91EF919F91B2
:1004F0008F912F910F900FBE0F901F9018958081B4
:10050000F4CF1F920F920FB60F9211242F933F93A7
:100510008F939F93AF93BF9380912C0190912D0166
:10052000A0912E01B0912F0130912B0123E0230FD8
:100530002D3758F50196A11DB11D20932B018093F5
:100540002C0190932D01A0932E01B0932F01809147
:10055000300190913101A0913201B09133010196A7
:10056000A11DB11D8093300190933101A093320100
:10057000B0933301BF91AF919F918F913F912F9194
:100580000F900FBE0F901F90189526E8230F02962C
:10059000A11DB11DD2CF1F920F920FB60F92112441
:1005A0002F933F934F935F936F937F938F939F937B
:1005B000AF93BF93EF93FF9341E050E062E271E0AD
:1005C00084E391E00E94F700FF91EF91BF91AF911A
:1005D0009F918F917F916F915F914F913F912F915B
:1005E0000F900FBE0F901F901895789484B582607D
:1005F00084BD84B5816084BD85B5826085BD85B5C7
:10060000816085BD80916E00816080936E00109244
:1006100081008091810082608093810080918100BF
:100620008160809381008091800081608093800050
:100630008091B10084608093B1008091B0008160AE
:100640008093B00080917A00846080937A008091DA
:100650007A00826080937A0080917A008160809332
:100660007A0080917A00806880937A001092C100AD
:10067000E0914401F091450182E08083E0914001E6
:10068000F09141011082E0914201F091430180E13B
:10069000808310924C01E0914801F091490186E07D
:1006A0008083E0914601F0914701808180618083E1
:1006B000E0914601F0914701808188608083E0915C
:1006C0004601F0914701808180688083E091460176
:1006D000F091470180818F7D808314BE88E198E28C
:1006E0000FB6F894A895809360000FBE90936000B9
:1006F0008EE00E94AF008FE00E94AF008EE00E946B
:1007000087008FE00E9487000E9404024B015C0179
:1007100088EBC82E8BE0D82EE12CF12C0E9404022D
:10072000681979098A099B09683E7340810591051A
:10073000A8F321E0C21AD108E108F10888EE880E7A
:1007400083E0981EA11CB11CC114D104E104F10482
:1007500029F780ED90EFABE6B0E080930301909332
:100760000401A0930501B093060181E0809302018A
:1007700048E050E069E171E084E391E00E94F70015
:10078000C0E0D0E02097F1F30E9461018823D1F30B
:100790000E940000F7CFE4E3F1E01382128288EEBA
:1007A00093E0A0E0B0E084839583A683B7838BE0D9
:1007B00091E09183808385EC90E09587848784EC39
:1007C00090E09787868780EC90E0918B808B81EC1E
:1007D00090E0938B828B82EC90E0958B848B86ECFF
:1007E00090E0978B868B118E128E138E148E089547
:1007F000EE0FFF1F0590F491E02D0994F894FFCFC0
:10080000040201809FD500000000009701F700243A
:1008100001E4015501330147014241534C41444930
:040820004B002E005B
:00000001FF
